{
  "contractName": "Counter",
  "abi": [
    {
      "constant": false,
      "inputs": [],
      "name": "incrementCounter",
      "outputs": [],
      "payable": false,
      "stateMutability": "nonpayable",
      "type": "function"
    },
    {
      "constant": false,
      "inputs": [],
      "name": "decrementCounter",
      "outputs": [],
      "payable": false,
      "stateMutability": "nonpayable",
      "type": "function"
    },
    {
      "constant": true,
      "inputs": [],
      "name": "getCount",
      "outputs": [
        {
          "internalType": "int256",
          "name": "",
          "type": "int256"
        }
      ],
      "payable": false,
      "stateMutability": "view",
      "type": "function"
    }
  ],
  "bytecode": "0x60806040526000805534801561001457600080fd5b5060cf806100236000396000f3fe6080604052348015600f57600080fd5b5060043610603c5760003560e01c80635b34b966146041578063a87d942c146049578063f5c5ad83146065575b600080fd5b6047606d565b005b604f607f565b6040518082815260200191505060405180910390f35b606b6088565b005b60016000808282540192505081905550565b60008054905090565b6001600080828254039250508190555056fea265627a7a7231582062839333ae4c74267be14da82429fa0eb13d60eb5b68ec905b5035b81bd831ce64736f6c634300050c0032",
  "source": "pragma solidity >=0.4.21 <0.6.0;\n\n// contract ServiceDelivery{\n//     address public recipient = msg.sender;\n//     address public client = 0x33c6711d314f5bbCAa09cf49CF0c734D038A642B;\n\n//     bool public active = true;\n//     bool public isLate = false;\n\n//     uint public price;\n//     string public pdfHash = \"miaou\";\n\n//     //uint public dueDate = now + 30 days;\n//     uint public dueDate = now;\n//     uint public lastDate = dueDate + 15 days;\n\n//     constructor(uint _price) public {\n//         price = _price;\n//         price = 60;\n//     }\n\n//     modifier isActive {\n//         require(active);\n//         _;\n//     }\n\n//     function late() public {\n//         //require(now > dueDate && !isLate);\n//         price += 1;\n//     }\n\n//     function verify() public returns(uint)  {\n\n//         return price;\n//     }\n// }\n\n\ncontract Counter {\n    int private count = 0;\n    function incrementCounter() public {\n        count += 1;\n    }\n    function decrementCounter() public {\n        count -= 1;\n    }\n    function getCount() public view returns (int) {\n        return count;\n    }\n}",
  "sourcePath": "/home/vincentflogui/Documents/PFE/Blockchain/test2/smart_contract/contracts/ServiceDelivery.sol",
  "compiler": {
    "name": "solc",
    "version": "0.5.12+commit.7709ece9.Emscripten.clang"
  },
  "schemaVersion": "3.0.19",
  "updatedAt": "2019-11-20T15:13:02.699Z",
  "devdoc": {
    "methods": {}
  },
  "userdoc": {
    "methods": {}
  }
}