{
  "contractName": "ServiceDelivery",
  "abi": [
    {
      "inputs": [
        {
          "internalType": "uint256",
          "name": "_price",
          "type": "uint256"
        }
      ],
      "payable": false,
      "stateMutability": "nonpayable",
      "type": "constructor"
    },
    {
      "constant": true,
      "inputs": [],
      "name": "active",
      "outputs": [
        {
          "internalType": "bool",
          "name": "",
          "type": "bool"
        }
      ],
      "payable": false,
      "stateMutability": "view",
      "type": "function"
    },
    {
      "constant": true,
      "inputs": [],
      "name": "client",
      "outputs": [
        {
          "internalType": "address",
          "name": "",
          "type": "address"
        }
      ],
      "payable": false,
      "stateMutability": "view",
      "type": "function"
    },
    {
      "constant": true,
      "inputs": [],
      "name": "dueDate",
      "outputs": [
        {
          "internalType": "uint256",
          "name": "",
          "type": "uint256"
        }
      ],
      "payable": false,
      "stateMutability": "view",
      "type": "function"
    },
    {
      "constant": true,
      "inputs": [],
      "name": "isLate",
      "outputs": [
        {
          "internalType": "bool",
          "name": "",
          "type": "bool"
        }
      ],
      "payable": false,
      "stateMutability": "view",
      "type": "function"
    },
    {
      "constant": true,
      "inputs": [],
      "name": "lastDate",
      "outputs": [
        {
          "internalType": "uint256",
          "name": "",
          "type": "uint256"
        }
      ],
      "payable": false,
      "stateMutability": "view",
      "type": "function"
    },
    {
      "constant": true,
      "inputs": [],
      "name": "pdfHash",
      "outputs": [
        {
          "internalType": "string",
          "name": "",
          "type": "string"
        }
      ],
      "payable": false,
      "stateMutability": "view",
      "type": "function"
    },
    {
      "constant": true,
      "inputs": [],
      "name": "price",
      "outputs": [
        {
          "internalType": "uint256",
          "name": "",
          "type": "uint256"
        }
      ],
      "payable": false,
      "stateMutability": "view",
      "type": "function"
    },
    {
      "constant": true,
      "inputs": [],
      "name": "recipient",
      "outputs": [
        {
          "internalType": "address",
          "name": "",
          "type": "address"
        }
      ],
      "payable": false,
      "stateMutability": "view",
      "type": "function"
    },
    {
      "constant": false,
      "inputs": [],
      "name": "late",
      "outputs": [],
      "payable": false,
      "stateMutability": "nonpayable",
      "type": "function"
    },
    {
      "constant": false,
      "inputs": [],
      "name": "verify",
      "outputs": [
        {
          "internalType": "uint256",
          "name": "",
          "type": "uint256"
        }
      ],
      "payable": false,
      "stateMutability": "nonpayable",
      "type": "function"
    }
  ],
  "bytecode": "0x6080604052336000806101000a81548173ffffffffffffffffffffffffffffffffffffffff021916908373ffffffffffffffffffffffffffffffffffffffff1602179055507333c6711d314f5bbcaa09cf49cf0c734d038a642b600160006101000a81548173ffffffffffffffffffffffffffffffffffffffff021916908373ffffffffffffffffffffffffffffffffffffffff16021790555060018060146101000a81548160ff0219169083151502179055506000600160156101000a81548160ff0219169083151502179055506040518060400160405280600581526020017f6d69616f7500000000000000000000000000000000000000000000000000000081525060039080519060200190610119929190610181565b50601e42016004556213c6806004540160055534801561013857600080fd5b506040516106573803806106578339818101604052602081101561015b57600080fd5b810190808051906020019092919050505080600281905550603c60028190555050610226565b828054600181600116156101000203166002900490600052602060002090601f016020900481019282601f106101c257805160ff19168380011785556101f0565b828001600101855582156101f0579182015b828111156101ef5782518255916020019190600101906101d4565b5b5090506101fd9190610201565b5090565b61022391905b8082111561021f576000816000905550600101610207565b5090565b90565b610422806102356000396000f3fe608060405234801561001057600080fd5b506004361061009e5760003560e01c8063786716fe11610066578063786716fe1461018157806381c17a151461019f578063a035b1fe146101c1578063b9b1e284146101df578063fc735e99146102625761009e565b806302fb0c5e146100a3578063109e94cf146100c55780634565abee1461010f57806355a2be241461011957806366d003ac14610137575b600080fd5b6100ab610280565b604051808215151515815260200191505060405180910390f35b6100cd610293565b604051808273ffffffffffffffffffffffffffffffffffffffff1673ffffffffffffffffffffffffffffffffffffffff16815260200191505060405180910390f35b6101176102b9565b005b6101216102f3565b6040518082815260200191505060405180910390f35b61013f6102f9565b604051808273ffffffffffffffffffffffffffffffffffffffff1673ffffffffffffffffffffffffffffffffffffffff16815260200191505060405180910390f35b61018961031e565b6040518082815260200191505060405180910390f35b6101a7610324565b604051808215151515815260200191505060405180910390f35b6101c9610337565b6040518082815260200191505060405180910390f35b6101e761033d565b6040518080602001828103825283818151815260200191508051906020019080838360005b8381101561022757808201518184015260208101905061020c565b50505050905090810190601f1680156102545780820380516001836020036101000a031916815260200191505b509250505060405180910390f35b61026a6103db565b6040518082815260200191505060405180910390f35b600160149054906101000a900460ff1681565b600160009054906101000a900473ffffffffffffffffffffffffffffffffffffffff1681565b600454421180156102d75750600160159054906101000a900460ff16155b6102e057600080fd5b6001600260008282540192505081905550565b60055481565b6000809054906101000a900473ffffffffffffffffffffffffffffffffffffffff1681565b60045481565b600160159054906101000a900460ff1681565b60025481565b60038054600181600116156101000203166002900480601f0160208091040260200160405190810160405280929190818152602001828054600181600116156101000203166002900480156103d35780601f106103a8576101008083540402835291602001916103d3565b820191906000526020600020905b8154815290600101906020018083116103b657829003601f168201915b505050505081565b60006103e56102b9565b60025490509056fea265627a7a72315820295316671b47b4f7f20a71eb24eadba810420d758b1a0343c491ed559e93bb8164736f6c634300050c0032",
  "source": "pragma solidity >=0.4.21 <0.6.0;\n\ncontract ServiceDelivery{\n    address public recipient = msg.sender;\n    address public client = 0x33c6711d314f5bbCAa09cf49CF0c734D038A642B;\n\n    bool public active = true;\n    bool public isLate = false;\n\n    uint public price;\n    string public pdfHash = \"miaou\";\n\n    uint public dueDate = now + 30 seconds;\n    uint public lastDate = dueDate + 15 days;\n\n    constructor(uint _price) public {\n        price = _price;\n        price = 60;\n    }\n\n    modifier isActive {\n        require(active);\n        _;\n    }\n\n    function late() public {\n        require(now > dueDate && !isLate);\n        price += 1;\n    }\n\n    function verify() public returns(uint)  {\n        late();\n        return price;\n    }\n}",
  "sourcePath": "/home/vincentflogui/Documents/PFE/Blockchain/test2/smart_contract/contracts/ServiceDelivery.sol",
  "compiler": {
    "name": "solc",
    "version": "0.5.12+commit.7709ece9.Emscripten.clang"
  },
  "schemaVersion": "3.0.19",
  "updatedAt": "2019-11-20T15:44:42.675Z",
  "networkType": "ethereum",
  "devdoc": {
    "methods": {}
  },
  "userdoc": {
    "methods": {}
  }
}